{
  "contractName": "Wallet",
  "abi": [
    {
      "inputs": [
        {
          "internalType": "address",
          "name": "",
          "type": "address"
        },
        {
          "internalType": "bytes32",
          "name": "",
          "type": "bytes32"
        }
      ],
      "name": "balances",
      "outputs": [
        {
          "internalType": "uint256",
          "name": "",
          "type": "uint256"
        }
      ],
      "stateMutability": "view",
      "type": "function"
    },
    {
      "inputs": [
        {
          "internalType": "uint256",
          "name": "",
          "type": "uint256"
        }
      ],
      "name": "tokenList",
      "outputs": [
        {
          "internalType": "bytes32",
          "name": "",
          "type": "bytes32"
        }
      ],
      "stateMutability": "view",
      "type": "function"
    },
    {
      "inputs": [
        {
          "internalType": "bytes32",
          "name": "",
          "type": "bytes32"
        }
      ],
      "name": "tokenMapping",
      "outputs": [
        {
          "internalType": "bytes32",
          "name": "ticker",
          "type": "bytes32"
        },
        {
          "internalType": "address",
          "name": "tokenAddress",
          "type": "address"
        }
      ],
      "stateMutability": "view",
      "type": "function"
    },
    {
      "inputs": [
        {
          "internalType": "bytes32",
          "name": "ticker",
          "type": "bytes32"
        },
        {
          "internalType": "address",
          "name": "tokenAddress",
          "type": "address"
        }
      ],
      "name": "addToken",
      "outputs": [],
      "stateMutability": "nonpayable",
      "type": "function"
    },
    {
      "inputs": [
        {
          "internalType": "uint256",
          "name": "units",
          "type": "uint256"
        },
        {
          "internalType": "bytes32",
          "name": "ticker",
          "type": "bytes32"
        }
      ],
      "name": "deposit",
      "outputs": [],
      "stateMutability": "nonpayable",
      "type": "function"
    },
    {
      "inputs": [
        {
          "internalType": "uint256",
          "name": "units",
          "type": "uint256"
        },
        {
          "internalType": "bytes32",
          "name": "ticker",
          "type": "bytes32"
        }
      ],
      "name": "withdraw",
      "outputs": [],
      "stateMutability": "nonpayable",
      "type": "function"
    }
  ],
  "bytecode": "0x608060405234801561001057600080fd5b506109ea806100206000396000f3fe608060405234801561001057600080fd5b50600436106100625760003560e01c80631f14df6914610067578063667cb4ba146100975780639776aacf146100c85780639ead7222146100e4578063a8d2021a14610114578063c9630cb014610130575b600080fd5b610081600480360381019061007c91906105ec565b61014c565b60405161008e91906107f8565b60405180910390f35b6100b160048036038101906100ac9190610651565b610171565b6040516100bf9291906107af565b60405180910390f35b6100e260048036038101906100dd919061067a565b6101b5565b005b6100fe60048036038101906100f991906106b6565b610273565b60405161010b9190610794565b60405180910390f35b61012e600480360381019061012991906106df565b610297565b005b61014a600480360381019061014591906106df565b610517565b005b6002602052816000526040600020602052806000526040600020600091509150505481565b60006020528060005260406000206000915090508060000154908060010160009054906101000a900473ffffffffffffffffffffffffffffffffffffffff16905082565b60405180604001604052808381526020018273ffffffffffffffffffffffffffffffffffffffff168152506000808481526020019081526020016000206000820151816000015560208201518160010160006101000a81548173ffffffffffffffffffffffffffffffffffffffff021916908373ffffffffffffffffffffffffffffffffffffffff16021790555090505060018290806001815401808255809150506001900390600052602060002001600090919091909150555050565b6001818154811061028357600080fd5b906000526020600020016000915090505481565b81600260003373ffffffffffffffffffffffffffffffffffffffff1673ffffffffffffffffffffffffffffffffffffffff168152602001908152602001600020600083815260200190815260200160002054101561032a576040517f08c379a0000000000000000000000000000000000000000000000000000000008152600401610321906107d8565b60405180910390fd5b600073ffffffffffffffffffffffffffffffffffffffff1660008083815260200190815260200160002060010160009054906101000a900473ffffffffffffffffffffffffffffffffffffffff1673ffffffffffffffffffffffffffffffffffffffff16141561039957600080fd5b6103fc82600260003373ffffffffffffffffffffffffffffffffffffffff1673ffffffffffffffffffffffffffffffffffffffff16815260200190815260200160002060008481526020019081526020016000205461058290919063ffffffff16565b600260003373ffffffffffffffffffffffffffffffffffffffff1673ffffffffffffffffffffffffffffffffffffffff16815260200190815260200160002060008381526020019081526020016000208190555060008082815260200190815260200160002060010160009054906101000a900473ffffffffffffffffffffffffffffffffffffffff1673ffffffffffffffffffffffffffffffffffffffff1663a9059cbb33846040518363ffffffff1660e01b81526004016104c092919061076b565b602060405180830381600087803b1580156104da57600080fd5b505af11580156104ee573d6000803e3d6000fd5b505050506040513d601f19601f820116820180604052508101906105129190610628565b505050565b81600260003373ffffffffffffffffffffffffffffffffffffffff1673ffffffffffffffffffffffffffffffffffffffff168152602001908152602001600020600083815260200190815260200160002060008282546105779190610824565b925050819055505050565b60008183610590919061087a565b905092915050565b6000813590506105a781610958565b92915050565b6000815190506105bc8161096f565b92915050565b6000813590506105d181610986565b92915050565b6000813590506105e68161099d565b92915050565b600080604083850312156105ff57600080fd5b600061060d85828601610598565b925050602061061e858286016105c2565b9150509250929050565b60006020828403121561063a57600080fd5b6000610648848285016105ad565b91505092915050565b60006020828403121561066357600080fd5b6000610671848285016105c2565b91505092915050565b6000806040838503121561068d57600080fd5b600061069b858286016105c2565b92505060206106ac85828601610598565b9150509250929050565b6000602082840312156106c857600080fd5b60006106d6848285016105d7565b91505092915050565b600080604083850312156106f257600080fd5b6000610700858286016105d7565b9250506020610711858286016105c2565b9150509250929050565b610724816108ae565b82525050565b610733816108cc565b82525050565b6000610746601683610813565b91506107518261092f565b602082019050919050565b610765816108f6565b82525050565b6000604082019050610780600083018561071b565b61078d602083018461075c565b9392505050565b60006020820190506107a9600083018461072a565b92915050565b60006040820190506107c4600083018561072a565b6107d1602083018461071b565b9392505050565b600060208201905081810360008301526107f181610739565b9050919050565b600060208201905061080d600083018461075c565b92915050565b600082825260208201905092915050565b600061082f826108f6565b915061083a836108f6565b9250827fffffffffffffffffffffffffffffffffffffffffffffffffffffffffffffffff0382111561086f5761086e610900565b5b828201905092915050565b6000610885826108f6565b9150610890836108f6565b9250828210156108a3576108a2610900565b5b828203905092915050565b60006108b9826108d6565b9050919050565b60008115159050919050565b6000819050919050565b600073ffffffffffffffffffffffffffffffffffffffff82169050919050565b6000819050919050565b7f4e487b7100000000000000000000000000000000000000000000000000000000600052601160045260246000fd5b7f42616c616e6365206e6f742073756666696369656e7400000000000000000000600082015250565b610961816108ae565b811461096c57600080fd5b50565b610978816108c0565b811461098357600080fd5b50565b61098f816108cc565b811461099a57600080fd5b50565b6109a6816108f6565b81146109b157600080fd5b5056fea2646970667358221220a7c2b30d9b02a095acfe6d913d1b919aad06edfb930c2d6f1cbbf60315a8bb6d64736f6c63430008040033",
  "immutableReferences": {},
  "source": "// SPDX-License-Identifier: MIT\r\n\r\npragma solidity >=0.4.22 <0.9.0;\r\n\r\n import \"../node_modules/@openzeppelin/contracts/token/ERC20/IERC20.sol\";\r\n import \"../node_modules/@openzeppelin/contracts/utils/math/SafeMath.sol\";\r\n   \r\ncontract Wallet{\r\n    \r\n    using SafeMath for uint;\r\n\r\n    struct Token{\r\n        bytes32 ticker;\r\n        address tokenAddress;\r\n    }\r\n\r\n    mapping(bytes32 => Token ) public tokenMapping;\r\n    bytes32[] public tokenList;\r\n    mapping(address => mapping(bytes32 =>uint)) public balances;\r\n\r\n\r\n    function addToken(bytes32 ticker,address tokenAddress) public{\r\n        tokenMapping[ticker]=Token(ticker,tokenAddress);\r\n        tokenList.push(ticker);\r\n    }\r\n\r\n    function deposit(uint units,bytes32 ticker) external{\r\n\r\n        balances[msg.sender][ticker]+=units;\r\n    }\r\n\r\n    \r\n    function withdraw(uint units,bytes32 ticker) external{\r\n\r\n        require(balances[msg.sender][ticker]>=units,\"Balance not sufficient\");\r\n        require(tokenMapping[ticker].tokenAddress!=address(0));\r\n        balances[msg.sender][ticker]=balances[msg.sender][ticker].sub(units);\r\n\r\n        IERC20(tokenMapping[ticker].tokenAddress).transfer(msg.sender, units);\r\n       }\r\n\r\n\r\n\r\n}",
  "sourcePath": "E:/BlockChain/DEX/contracts/Wallet.sol",
  "compiler": {
    "name": "solc",
    "version": "0.8.4+commit.c7e474f2.Emscripten.clang"
  },
  "schemaVersion": "3.4.1",
  "updatedAt": "2021-06-01T11:23:59.885Z",
  "devdoc": {
    "kind": "dev",
    "methods": {},
    "version": 1
  },
  "userdoc": {
    "kind": "user",
    "methods": {},
    "version": 1
  }
}